{
  "_format": "hh-sol-artifact-1",
  "contractName": "BadgeMarketplace",
  "sourceName": "contracts/BadgeMarketplace.sol",
  "abi": [
    {
      "inputs": [
        {
          "internalType": "address",
          "name": "_badgeContract",
          "type": "address"
        }
      ],
      "stateMutability": "nonpayable",
      "type": "constructor"
    },
    {
      "inputs": [
        {
          "internalType": "address",
          "name": "owner",
          "type": "address"
        }
      ],
      "name": "OwnableInvalidOwner",
      "type": "error"
    },
    {
      "inputs": [
        {
          "internalType": "address",
          "name": "account",
          "type": "address"
        }
      ],
      "name": "OwnableUnauthorizedAccount",
      "type": "error"
    },
    {
      "inputs": [],
      "name": "ReentrancyGuardReentrantCall",
      "type": "error"
    },
    {
      "anonymous": false,
      "inputs": [
        {
          "indexed": true,
          "internalType": "uint256",
          "name": "listingId",
          "type": "uint256"
        },
        {
          "indexed": true,
          "internalType": "uint256",
          "name": "tokenId",
          "type": "uint256"
        },
        {
          "indexed": true,
          "internalType": "address",
          "name": "buyer",
          "type": "address"
        },
        {
          "indexed": false,
          "internalType": "address",
          "name": "seller",
          "type": "address"
        },
        {
          "indexed": false,
          "internalType": "uint256",
          "name": "price",
          "type": "uint256"
        }
      ],
      "name": "BadgeBought",
      "type": "event"
    },
    {
      "anonymous": false,
      "inputs": [
        {
          "indexed": true,
          "internalType": "uint256",
          "name": "listingId",
          "type": "uint256"
        },
        {
          "indexed": true,
          "internalType": "uint256",
          "name": "tokenId",
          "type": "uint256"
        },
        {
          "indexed": true,
          "internalType": "address",
          "name": "seller",
          "type": "address"
        },
        {
          "indexed": false,
          "internalType": "uint256",
          "name": "price",
          "type": "uint256"
        }
      ],
      "name": "BadgeListed",
      "type": "event"
    },
    {
      "anonymous": false,
      "inputs": [
        {
          "indexed": true,
          "internalType": "uint256",
          "name": "listingId",
          "type": "uint256"
        },
        {
          "indexed": true,
          "internalType": "uint256",
          "name": "tokenId",
          "type": "uint256"
        }
      ],
      "name": "ListingCancelled",
      "type": "event"
    },
    {
      "anonymous": false,
      "inputs": [
        {
          "indexed": true,
          "internalType": "address",
          "name": "previousOwner",
          "type": "address"
        },
        {
          "indexed": true,
          "internalType": "address",
          "name": "newOwner",
          "type": "address"
        }
      ],
      "name": "OwnershipTransferred",
      "type": "event"
    },
    {
      "inputs": [
        {
          "internalType": "uint256",
          "name": "",
          "type": "uint256"
        }
      ],
      "name": "activeListings",
      "outputs": [
        {
          "internalType": "uint256",
          "name": "",
          "type": "uint256"
        }
      ],
      "stateMutability": "view",
      "type": "function"
    },
    {
      "inputs": [],
      "name": "badgeContract",
      "outputs": [
        {
          "internalType": "contract IERC721",
          "name": "",
          "type": "address"
        }
      ],
      "stateMutability": "view",
      "type": "function"
    },
    {
      "inputs": [
        {
          "internalType": "uint256",
          "name": "listingId",
          "type": "uint256"
        }
      ],
      "name": "buyBadge",
      "outputs": [],
      "stateMutability": "payable",
      "type": "function"
    },
    {
      "inputs": [
        {
          "internalType": "uint256",
          "name": "listingId",
          "type": "uint256"
        }
      ],
      "name": "cancelListing",
      "outputs": [],
      "stateMutability": "nonpayable",
      "type": "function"
    },
    {
      "inputs": [],
      "name": "getAllActiveListings",
      "outputs": [
        {
          "components": [
            {
              "internalType": "uint256",
              "name": "listingId",
              "type": "uint256"
            },
            {
              "internalType": "uint256",
              "name": "tokenId",
              "type": "uint256"
            },
            {
              "internalType": "address",
              "name": "seller",
              "type": "address"
            },
            {
              "internalType": "uint256",
              "name": "price",
              "type": "uint256"
            },
            {
              "internalType": "bool",
              "name": "active",
              "type": "bool"
            }
          ],
          "internalType": "struct BadgeMarketplace.Listing[]",
          "name": "",
          "type": "tuple[]"
        }
      ],
      "stateMutability": "view",
      "type": "function"
    },
    {
      "inputs": [
        {
          "internalType": "uint256",
          "name": "tokenId",
          "type": "uint256"
        },
        {
          "internalType": "uint256",
          "name": "price",
          "type": "uint256"
        }
      ],
      "name": "listBadge",
      "outputs": [],
      "stateMutability": "nonpayable",
      "type": "function"
    },
    {
      "inputs": [
        {
          "internalType": "uint256",
          "name": "",
          "type": "uint256"
        }
      ],
      "name": "listings",
      "outputs": [
        {
          "internalType": "uint256",
          "name": "listingId",
          "type": "uint256"
        },
        {
          "internalType": "uint256",
          "name": "tokenId",
          "type": "uint256"
        },
        {
          "internalType": "address",
          "name": "seller",
          "type": "address"
        },
        {
          "internalType": "uint256",
          "name": "price",
          "type": "uint256"
        },
        {
          "internalType": "bool",
          "name": "active",
          "type": "bool"
        }
      ],
      "stateMutability": "view",
      "type": "function"
    },
    {
      "inputs": [],
      "name": "owner",
      "outputs": [
        {
          "internalType": "address",
          "name": "",
          "type": "address"
        }
      ],
      "stateMutability": "view",
      "type": "function"
    },
    {
      "inputs": [],
      "name": "renounceOwnership",
      "outputs": [],
      "stateMutability": "nonpayable",
      "type": "function"
    },
    {
      "inputs": [
        {
          "internalType": "address",
          "name": "newOwner",
          "type": "address"
        }
      ],
      "name": "transferOwnership",
      "outputs": [],
      "stateMutability": "nonpayable",
      "type": "function"
    }
  ],
  "bytecode": "0x60806040523480156200001157600080fd5b5060405162001f7038038062001f7083398181016040528101906200003791906200023c565b33600073ffffffffffffffffffffffffffffffffffffffff168173ffffffffffffffffffffffffffffffffffffffff1603620000ad5760006040517f1e4fbdf7000000000000000000000000000000000000000000000000000000008152600401620000a491906200027f565b60405180910390fd5b620000be816200010e60201b60201c565b506001808190555080600260006101000a81548173ffffffffffffffffffffffffffffffffffffffff021916908373ffffffffffffffffffffffffffffffffffffffff160217905550506200029c565b60008060009054906101000a900473ffffffffffffffffffffffffffffffffffffffff169050816000806101000a81548173ffffffffffffffffffffffffffffffffffffffff021916908373ffffffffffffffffffffffffffffffffffffffff1602179055508173ffffffffffffffffffffffffffffffffffffffff168173ffffffffffffffffffffffffffffffffffffffff167f8be0079c531659141344cd1fd0a4f28419497f9722a3daafe3b4186f6b6457e060405160405180910390a35050565b600080fd5b600073ffffffffffffffffffffffffffffffffffffffff82169050919050565b60006200020482620001d7565b9050919050565b6200021681620001f7565b81146200022257600080fd5b50565b60008151905062000236816200020b565b92915050565b600060208284031215620002555762000254620001d2565b5b6000620002658482850162000225565b91505092915050565b6200027981620001f7565b82525050565b60006020820190506200029660008301846200026e565b92915050565b611cc480620002ac6000396000f3fe6080604052600436106100915760003560e01c80638d6d4925116100595780638d6d49251461015a5780638da5cb5b14610185578063c718f2bb146101b0578063de74e57b146101d9578063f2fde38b1461021a57610091565b80632e5d9a0314610096578063305a67a8146100b257806361cf4863146100db578063701e508414610118578063715018a614610143575b600080fd5b6100b060048036038101906100ab9190611212565b610243565b005b3480156100be57600080fd5b506100d960048036038101906100d49190611212565b610661565b005b3480156100e757600080fd5b5061010260048036038101906100fd9190611212565b6107db565b60405161010f919061124e565b60405180910390f35b34801561012457600080fd5b5061012d6107f3565b60405161013a91906113eb565b60405180910390f35b34801561014f57600080fd5b506101586109db565b005b34801561016657600080fd5b5061016f6109ef565b60405161017c919061146c565b60405180910390f35b34801561019157600080fd5b5061019a610a15565b6040516101a79190611496565b60405180910390f35b3480156101bc57600080fd5b506101d760048036038101906101d291906114b1565b610a3e565b005b3480156101e557600080fd5b5061020060048036038101906101fb9190611212565b610f05565b604051610211959493929190611500565b60405180910390f35b34801561022657600080fd5b50610241600480360381019061023c919061157f565b610f68565b005b61024b610fee565b60006004600083815260200190815260200160002090508060040160009054906101000a900460ff166102b3576040517f08c379a00000000000000000000000000000000000000000000000000000000081526004016102aa90611609565b60405180910390fd5b80600301543410156102fa576040517f08c379a00000000000000000000000000000000000000000000000000000000081526004016102f190611675565b60405180910390fd5b3373ffffffffffffffffffffffffffffffffffffffff168160020160009054906101000a900473ffffffffffffffffffffffffffffffffffffffff1673ffffffffffffffffffffffffffffffffffffffff160361038c576040517f08c379a000000000000000000000000000000000000000000000000000000000815260040161038390611707565b60405180910390fd5b60008160040160006101000a81548160ff021916908315150217905550600060056000836001015481526020019081526020016000208190555060008160020160009054906101000a900473ffffffffffffffffffffffffffffffffffffffff169050600082600301549050600083600101549050600260009054906101000a900473ffffffffffffffffffffffffffffffffffffffff1673ffffffffffffffffffffffffffffffffffffffff166342842e0e8433846040518463ffffffff1660e01b815260040161046093929190611727565b600060405180830381600087803b15801561047a57600080fd5b505af115801561048e573d6000803e3d6000fd5b5050505060008373ffffffffffffffffffffffffffffffffffffffff16836040516104b89061178f565b60006040518083038185875af1925050503d80600081146104f5576040519150601f19603f3d011682016040523d82523d6000602084013e6104fa565b606091505b505090508061053e576040517f08c379a0000000000000000000000000000000000000000000000000000000008152600401610535906117f0565b60405180910390fd5b823411156105ff5760003373ffffffffffffffffffffffffffffffffffffffff16843461056b919061183f565b6040516105779061178f565b60006040518083038185875af1925050503d80600081146105b4576040519150601f19603f3d011682016040523d82523d6000602084013e6105b9565b606091505b50509050806105fd576040517f08c379a00000000000000000000000000000000000000000000000000000000081526004016105f4906118bf565b60405180910390fd5b505b3373ffffffffffffffffffffffffffffffffffffffff1682877fc54a581d5e7936df3f5ea059549964ef0357f86e84547ae38781db69b580b47087876040516106499291906118df565b60405180910390a4505050505061065e611034565b50565b610669610fee565b60006004600083815260200190815260200160002090508060040160009054906101000a900460ff166106d1576040517f08c379a00000000000000000000000000000000000000000000000000000000081526004016106c890611609565b60405180910390fd5b3373ffffffffffffffffffffffffffffffffffffffff168160020160009054906101000a900473ffffffffffffffffffffffffffffffffffffffff1673ffffffffffffffffffffffffffffffffffffffff1614610763576040517f08c379a000000000000000000000000000000000000000000000000000000000815260040161075a90611954565b60405180910390fd5b60008160040160006101000a81548160ff02191690831515021790555060006005600083600101548152602001908152602001600020819055508060010154827fafd0a85a3f09cebbc7d9fcde08e8a7d0ebb0aa7d768a030915c3816a053d3c7a60405160405180910390a3506107d8611034565b50565b60056020528060005260406000206000915090505481565b6060600080600190505b6003548111610851576004600082815260200190815260200160002060040160009054906101000a900460ff161561083e57818061083a90611974565b9250505b808061084990611974565b9150506107fd565b5060008167ffffffffffffffff81111561086e5761086d6119bc565b5b6040519080825280602002602001820160405280156108a757816020015b610894611190565b81526020019060019003908161088c5790505b509050600080600190505b60035481116109d1576004600082815260200190815260200160002060040160009054906101000a900460ff16156109be57600460008281526020019081526020016000206040518060a001604052908160008201548152602001600182015481526020016002820160009054906101000a900473ffffffffffffffffffffffffffffffffffffffff1673ffffffffffffffffffffffffffffffffffffffff1673ffffffffffffffffffffffffffffffffffffffff168152602001600382015481526020016004820160009054906101000a900460ff1615151515815250508383815181106109a4576109a36119eb565b5b602002602001018190525081806109ba90611974565b9250505b80806109c990611974565b9150506108b2565b5081935050505090565b6109e361103d565b6109ed60006110c4565b565b600260009054906101000a900473ffffffffffffffffffffffffffffffffffffffff1681565b60008060009054906101000a900473ffffffffffffffffffffffffffffffffffffffff16905090565b610a46610fee565b60008111610a89576040517f08c379a0000000000000000000000000000000000000000000000000000000008152600401610a8090611a66565b60405180910390fd5b3373ffffffffffffffffffffffffffffffffffffffff16600260009054906101000a900473ffffffffffffffffffffffffffffffffffffffff1673ffffffffffffffffffffffffffffffffffffffff16636352211e846040518263ffffffff1660e01b8152600401610afb919061124e565b602060405180830381865afa158015610b18573d6000803e3d6000fd5b505050506040513d601f19601f82011682018060405250810190610b3c9190611a9b565b73ffffffffffffffffffffffffffffffffffffffff1614610b92576040517f08c379a0000000000000000000000000000000000000000000000000000000008152600401610b8990611b14565b60405180910390fd5b3073ffffffffffffffffffffffffffffffffffffffff16600260009054906101000a900473ffffffffffffffffffffffffffffffffffffffff1673ffffffffffffffffffffffffffffffffffffffff1663081812fc846040518263ffffffff1660e01b8152600401610c04919061124e565b602060405180830381865afa158015610c21573d6000803e3d6000fd5b505050506040513d601f19601f82011682018060405250810190610c459190611a9b565b73ffffffffffffffffffffffffffffffffffffffff161480610d015750600260009054906101000a900473ffffffffffffffffffffffffffffffffffffffff1673ffffffffffffffffffffffffffffffffffffffff1663e985e9c533306040518363ffffffff1660e01b8152600401610cbf929190611b34565b602060405180830381865afa158015610cdc573d6000803e3d6000fd5b505050506040513d601f19601f82011682018060405250810190610d009190611b89565b5b610d40576040517f08c379a0000000000000000000000000000000000000000000000000000000008152600401610d3790611c02565b60405180910390fd5b6000600560008481526020019081526020016000205414610d96576040517f08c379a0000000000000000000000000000000000000000000000000000000008152600401610d8d90611c6e565b60405180910390fd5b60036000815480929190610da990611974565b9190505550600060035490506040518060a001604052808281526020018481526020013373ffffffffffffffffffffffffffffffffffffffff1681526020018381526020016001151581525060046000838152602001908152602001600020600082015181600001556020820151816001015560408201518160020160006101000a81548173ffffffffffffffffffffffffffffffffffffffff021916908373ffffffffffffffffffffffffffffffffffffffff1602179055506060820151816003015560808201518160040160006101000a81548160ff0219169083151502179055509050508060056000858152602001908152602001600020819055503373ffffffffffffffffffffffffffffffffffffffff1683827fb53c2754ace316f1147b5923aa80b04358b6110d231018c28dfeef1887f640b885604051610ef0919061124e565b60405180910390a450610f01611034565b5050565b60046020528060005260406000206000915090508060000154908060010154908060020160009054906101000a900473ffffffffffffffffffffffffffffffffffffffff16908060030154908060040160009054906101000a900460ff16905085565b610f7061103d565b600073ffffffffffffffffffffffffffffffffffffffff168173ffffffffffffffffffffffffffffffffffffffff1603610fe25760006040517f1e4fbdf7000000000000000000000000000000000000000000000000000000008152600401610fd99190611496565b60405180910390fd5b610feb816110c4565b50565b60026001540361102a576040517f3ee5aeb500000000000000000000000000000000000000000000000000000000815260040160405180910390fd5b6002600181905550565b60018081905550565b611045611188565b73ffffffffffffffffffffffffffffffffffffffff16611063610a15565b73ffffffffffffffffffffffffffffffffffffffff16146110c257611086611188565b6040517f118cdaa70000000000000000000000000000000000000000000000000000000081526004016110b99190611496565b60405180910390fd5b565b60008060009054906101000a900473ffffffffffffffffffffffffffffffffffffffff169050816000806101000a81548173ffffffffffffffffffffffffffffffffffffffff021916908373ffffffffffffffffffffffffffffffffffffffff1602179055508173ffffffffffffffffffffffffffffffffffffffff168173ffffffffffffffffffffffffffffffffffffffff167f8be0079c531659141344cd1fd0a4f28419497f9722a3daafe3b4186f6b6457e060405160405180910390a35050565b600033905090565b6040518060a001604052806000815260200160008152602001600073ffffffffffffffffffffffffffffffffffffffff168152602001600081526020016000151581525090565b600080fd5b6000819050919050565b6111ef816111dc565b81146111fa57600080fd5b50565b60008135905061120c816111e6565b92915050565b600060208284031215611228576112276111d7565b5b6000611236848285016111fd565b91505092915050565b611248816111dc565b82525050565b6000602082019050611263600083018461123f565b92915050565b600081519050919050565b600082825260208201905092915050565b6000819050602082019050919050565b61129e816111dc565b82525050565b600073ffffffffffffffffffffffffffffffffffffffff82169050919050565b60006112cf826112a4565b9050919050565b6112df816112c4565b82525050565b60008115159050919050565b6112fa816112e5565b82525050565b60a0820160008201516113166000850182611295565b5060208201516113296020850182611295565b50604082015161133c60408501826112d6565b50606082015161134f6060850182611295565b50608082015161136260808501826112f1565b50505050565b60006113748383611300565b60a08301905092915050565b6000602082019050919050565b600061139882611269565b6113a28185611274565b93506113ad83611285565b8060005b838110156113de5781516113c58882611368565b97506113d083611380565b9250506001810190506113b1565b5085935050505092915050565b60006020820190508181036000830152611405818461138d565b905092915050565b6000819050919050565b600061143261142d611428846112a4565b61140d565b6112a4565b9050919050565b600061144482611417565b9050919050565b600061145682611439565b9050919050565b6114668161144b565b82525050565b6000602082019050611481600083018461145d565b92915050565b611490816112c4565b82525050565b60006020820190506114ab6000830184611487565b92915050565b600080604083850312156114c8576114c76111d7565b5b60006114d6858286016111fd565b92505060206114e7858286016111fd565b9150509250929050565b6114fa816112e5565b82525050565b600060a082019050611515600083018861123f565b611522602083018761123f565b61152f6040830186611487565b61153c606083018561123f565b61154960808301846114f1565b9695505050505050565b61155c816112c4565b811461156757600080fd5b50565b60008135905061157981611553565b92915050565b600060208284031215611595576115946111d7565b5b60006115a38482850161156a565b91505092915050565b600082825260208201905092915050565b7f4c697374696e67206e6f74206163746976650000000000000000000000000000600082015250565b60006115f36012836115ac565b91506115fe826115bd565b602082019050919050565b60006020820190508181036000830152611622816115e6565b9050919050565b7f496e73756666696369656e74207061796d656e74000000000000000000000000600082015250565b600061165f6014836115ac565b915061166a82611629565b602082019050919050565b6000602082019050818103600083015261168e81611652565b9050919050565b7f53656c6c65722063616e6e6f7420627579207468656972206f776e206261646760008201527f6500000000000000000000000000000000000000000000000000000000000000602082015250565b60006116f16021836115ac565b91506116fc82611695565b604082019050919050565b60006020820190508181036000830152611720816116e4565b9050919050565b600060608201905061173c6000830186611487565b6117496020830185611487565b611756604083018461123f565b949350505050565b600081905092915050565b50565b600061177960008361175e565b915061178482611769565b600082019050919050565b600061179a8261176c565b9150819050919050565b7f5472616e7366657220746f2073656c6c6572206661696c656400000000000000600082015250565b60006117da6019836115ac565b91506117e5826117a4565b602082019050919050565b60006020820190508181036000830152611809816117cd565b9050919050565b7f4e487b7100000000000000000000000000000000000000000000000000000000600052601160045260246000fd5b600061184a826111dc565b9150611855836111dc565b925082820390508181111561186d5761186c611810565b5b92915050565b7f526566756e64206661696c656400000000000000000000000000000000000000600082015250565b60006118a9600d836115ac565b91506118b482611873565b602082019050919050565b600060208201905081810360008301526118d88161189c565b9050919050565b60006040820190506118f46000830185611487565b611901602083018461123f565b9392505050565b7f4e6f74207468652073656c6c6572000000000000000000000000000000000000600082015250565b600061193e600e836115ac565b915061194982611908565b602082019050919050565b6000602082019050818103600083015261196d81611931565b9050919050565b600061197f826111dc565b91507fffffffffffffffffffffffffffffffffffffffffffffffffffffffffffffffff82036119b1576119b0611810565b5b600182019050919050565b7f4e487b7100000000000000000000000000000000000000000000000000000000600052604160045260246000fd5b7f4e487b7100000000000000000000000000000000000000000000000000000000600052603260045260246000fd5b7f5072696365206d7573742062652067726561746572207468616e207a65726f00600082015250565b6000611a50601f836115ac565b9150611a5b82611a1a565b602082019050919050565b60006020820190508181036000830152611a7f81611a43565b9050919050565b600081519050611a9581611553565b92915050565b600060208284031215611ab157611ab06111d7565b5b6000611abf84828501611a86565b91505092915050565b7f4e6f7420746865206f776e657200000000000000000000000000000000000000600082015250565b6000611afe600d836115ac565b9150611b0982611ac8565b602082019050919050565b60006020820190508181036000830152611b2d81611af1565b9050919050565b6000604082019050611b496000830185611487565b611b566020830184611487565b9392505050565b611b66816112e5565b8114611b7157600080fd5b50565b600081519050611b8381611b5d565b92915050565b600060208284031215611b9f57611b9e6111d7565b5b6000611bad84828501611b74565b91505092915050565b7f4d61726b6574706c616365206e6f7420617070726f7665640000000000000000600082015250565b6000611bec6018836115ac565b9150611bf782611bb6565b602082019050919050565b60006020820190508181036000830152611c1b81611bdf565b9050919050565b7f546f6b656e20616c7265616479206c6973746564000000000000000000000000600082015250565b6000611c586014836115ac565b9150611c6382611c22565b602082019050919050565b60006020820190508181036000830152611c8781611c4b565b905091905056fea2646970667358221220dfcac4354d5a1a721c256d4e14a0d276537e1d5597b55cc31ed6ff184c9ab4da64736f6c63430008140033",
  "linkReferences": {},
  "deployedLinkReferences": {}
}